{"abi":[{"type":"function","name":"getFieldSize","inputs":[],"outputs":[{"name":"","type":"uint256","internalType":"uint256"}],"stateMutability":"pure"},{"type":"function","name":"poseidon","inputs":[{"name":"inputs","type":"bytes32[4]","internalType":"bytes32[4]"}],"outputs":[{"name":"","type":"bytes32","internalType":"bytes32"}],"stateMutability":"pure"},{"type":"function","name":"poseidon","inputs":[{"name":"inputs","type":"bytes32[2]","internalType":"bytes32[2]"}],"outputs":[{"name":"","type":"bytes32","internalType":"bytes32"}],"stateMutability":"pure"},{"type":"function","name":"poseidon","inputs":[{"name":"inputs","type":"bytes32[]","internalType":"bytes32[]"}],"outputs":[{"name":"","type":"bytes32","internalType":"bytes32"}],"stateMutability":"pure"}],"bytecode":{"object":"0x60808060405234601557610bd0908161001a8239f35b5f80fdfe60806040526004361015610011575f80fd5b5f3560e01c80631e8625191461050357806320e2222c146104dc578063299e5660146103405763bc49971e14610045575f80fd5b3461033c57602036600319011261033c5760043567ffffffffffffffff811161033c573660238201121561033c5780600401359067ffffffffffffffff821161033c573660248360051b8301011161033c576100a16060610ae0565b9060603683378215610328575f516020610b7b5f395f51905f52602482013506825282600110156103285760208201925f516020610b7b5f395f51905f5260448301350684526002101561032857915f516020610b7b5f395f51905f526064604084019401350683525f925f5b600885106101225760208451604051908152f35b835190610314577f0ee9a592ba9a9518d05986d656f40c2114c4993c11bb29938d21d47304cd8e6e5f516020610b7b5f395f51905f52910883525f516020610b7b5f395f51905f527ef1445235f2148c5946a0f0f8d8d8e1e8b2c4d0d6f8e4e6a8c0e2d4b6f8e0e283510882525f516020610b7b5f395f51905f527f0c0e2d4b6f8e0e2f1f3f5f7f9fbfd0d2d4d6d8dadddfefe1e3e5e7e9ebedeff182510881525f516020610b7b5f395f51905f528351818082800980090983525f516020610b7b5f395f51905f528251818082800980090982525f516020610b7b5f395f51905f5281518180828009800909815260018351945f516020610b7b5f395f51905f5284518185519881805f516020610b5b5f395f51905f528c0981805f516020610b3b5f395f51905f528709817f109b7f411ba0e4c9b2b70caf5c36a7b194be7c11ad24378bfedb68592ba8118b86090808895281805f516020610b1b5f395f51905f528c0981807f02e5cffa73ea5a77faa9a5f7c8e8c64eca4cd929b1e33c67c8a5e5e1e5a5c5e58709815f516020610b3b5f395f51905f52860908088852815f516020610b5b5f395f51905f52815f516020610b1b5f395f51905f52817f1a86d6f9e2e2e2e2e2e2e2e2e2e2e2e2e2e2e2e2e2e2e2e2e2e2e2e2e2e2e2e25f9f099609920908088352019361010e565b634e487b7160e01b5f52601260045260245ffd5b634e487b7160e01b5f52603260045260245ffd5b5f80fd5b3461033c57604036600319011261033c573660441161033c576103636040610ae0565b60403682375f516020610b7b5f395f51905f52600435068152602081015f516020610b7b5f395f51905f526024350681525f905f5b600883106103ac5760208451604051908152f35b835190610314577f0ee9a592ba9a9518d05986d656f40c2114c4993c11bb29938d21d47304cd8e6e5f516020610b7b5f395f51905f52910883525f516020610b7b5f395f51905f527ef1445235f2148c5946a0f0f8d8d8e1e8b2c4d0d6f8e4e6a8c0e2d4b6f8e0e282510881525f516020610b7b5f395f51905f528351818082800980090983525f516020610b7b5f395f51905f5281518180828009800909815260018351925f516020610b7b5f395f51905f5283519481805f516020610b3b5f395f51905f528809817f109b7f411ba0e4c9b2b70caf5c36a7b194be7c11ad24378bfedb68592ba8118b8409088752815f516020610b3b5f395f51905f52817f02e5cffa73ea5a77faa9a5f7c8e8c64eca4cd929b1e33c67c8a5e5e1e5a5c5e55f990992090883520191610398565b3461033c575f36600319011261033c5760206040515f516020610b7b5f395f51905f528152f35b3461033c57608036600319011261033c573660841161033c576105266080610ae0565b60803682375f516020610b7b5f395f51905f5260043506815260208101905f516020610b7b5f395f51905f5260243506825260408101915f516020610b7b5f395f51905f5260443506835260608201905f516020610b7b5f395f51905f526064350682525f935f5b600886106105a25760208551604051908152f35b845190610314577f0ee9a592ba9a9518d05986d656f40c2114c4993c11bb29938d21d47304cd8e6e5f516020610b7b5f395f51905f529108845281517ef1445235f2148c5946a0f0f8d8d8e1e8b2c4d0d6f8e4e6a8c0e2d4b6f8e0e25f516020610b7b5f395f51905f529108825280517f0c0e2d4b6f8e0e2f1f3f5f7f9fbfd0d2d4d6d8dadddfefe1e3e5e7e9ebedeff15f516020610b7b5f395f51905f529108815282517f0f3f5f7f9fbfd0d2d4d6d8dadddfefe1e3e5e7e9ebedeff1f3f5f7f9fbfdfeff5f516020610b7b5f395f51905f529108835283515f516020610b7b5f395f51905f52818009805f516020610b7b5f395f51905f529109905f516020610b7b5f395f51905f529109845281515f516020610b7b5f395f51905f52818009805f516020610b7b5f395f51905f529109905f516020610b7b5f395f51905f529109825280515f516020610b7b5f395f51905f52818009805f516020610b7b5f395f51905f529109905f516020610b7b5f395f51905f529109815282515f516020610b7b5f395f51905f52818009805f516020610b7b5f395f51905f529109905f516020610b7b5f395f51905f529109835283519482518251908551975f516020610b7b5f395f51905f527f176cc029695ad02582a70eff08a6fd99d057e12e58e7d7b6b16cdfabc8ee29118a095f516020610b7b5f395f51905f525f516020610b5b5f395f51905f5285095f516020610b7b5f395f51905f525f516020610b3b5f395f51905f5285095f516020610b7b5f395f51905f527f109b7f411ba0e4c9b2b70caf5c36a7b194be7c11ad24378bfedb68592ba8118b8509905f516020610b7b5f395f51905f529108905f516020610b7b5f395f51905f529108905f516020610b7b5f395f51905f52910888525f516020610b7b5f395f51905f527f2b05c3e2e2e2e2e2e2e2e2e2e2e2e2e2e2e2e2e2e2e2e2e2e2e2e2e2e2e2e2e28a095f516020610b7b5f395f51905f525f516020610b1b5f395f51905f5285095f516020610b7b5f395f51905f527f02e5cffa73ea5a77faa9a5f7c8e8c64eca4cd929b1e33c67c8a5e5e1e5a5c5e585095f516020610b7b5f395f51905f525f516020610b3b5f395f51905f528509905f516020610b7b5f395f51905f529108905f516020610b7b5f395f51905f529108905f516020610b7b5f395f51905f52910886525f516020610b7b5f395f51905f527f2c9a3c4e4e4e4e4e4e4e4e4e4e4e4e4e4e4e4e4e4e4e4e4e4e4e4e4e4e4e4e4e8a095f516020610b7b5f395f51905f527f1a86d6f9e2e2e2e2e2e2e2e2e2e2e2e2e2e2e2e2e2e2e2e2e2e2e2e2e2e2e2e285095f516020610b7b5f395f51905f525f516020610b1b5f395f51905f5285095f516020610b7b5f395f51905f525f516020610b5b5f395f51905f528509905f516020610b7b5f395f51905f529108905f516020610b7b5f395f51905f529108905f516020610b7b5f395f51905f52910885525f987e63b0d1d1d1d1d1d1d1d1d1d1d1d1d1d1d1d1d1d1d1d1d1d1d1d1d1d1d1d1d15f516020610b7b5f395f51905f529109927f2c9a3c4e4e4e4e4e4e4e4e4e4e4e4e4e4e4e4e4e4e4e4e4e4e4e4e4e4e4e4e4e5f516020610b7b5f395f51905f529109917f2b05c3e2e2e2e2e2e2e2e2e2e2e2e2e2e2e2e2e2e2e2e2e2e2e2e2e2e2e2e2e25f516020610b7b5f395f51905f529109907f176cc029695ad02582a70eff08a6fd99d057e12e58e7d7b6b16cdfabc8ee29115f516020610b7b5f395f51905f529109905f516020610b7b5f395f51905f529108905f516020610b7b5f395f51905f529108905f516020610b7b5f395f51905f52910884526001019461058e565b6040519190601f01601f1916820167ffffffffffffffff811183821017610b0657604052565b634e487b7160e01b5f52604160045260245ffdfe11ae25f40f2e5d2e5d2e5d2e5d2e5d2e5d2e5d2e5d2e5d2e5d2e5d2e5d2e5d2e2969f27eed31a480b9c36c764379dbca2cc8fdd1415c3dded62940bcde0bd771143021ec686a3f330d5f9e654638065ce6cd79e28c5b3753326244ee65a1b1a730644e72e131a029b85045b68181585d2833e84879b9709143e1f593f0000001a2646970667358221220c4fa180801a0fa8036f2358c26d2d1969ac649f875c834b8df558ce973e58da964736f6c634300081e0033","linkReferences":{}},"methodIdentifiers":{"getFieldSize()":"20e2222c","poseidon(bytes32[2])":"299e5660","poseidon(bytes32[4])":"1e862519","poseidon(bytes32[])":"bc49971e"},"id":7}