{"abi":[{"type":"constructor","inputs":[{"name":"_entryPointAddr","type":"address","internalType":"contract IEntryPoint"},{"name":"owner_","type":"address","internalType":"address"}],"stateMutability":"nonpayable"},{"type":"receive","stateMutability":"payable"},{"type":"function","name":"addSessionKey","inputs":[{"name":"sessionKey","type":"address","internalType":"address"},{"name":"validUntil","type":"uint256","internalType":"uint256"},{"name":"spendingLimit","type":"uint256","internalType":"uint256"}],"outputs":[],"stateMutability":"nonpayable"},{"type":"function","name":"changeOwner","inputs":[{"name":"newOwner","type":"address","internalType":"address"}],"outputs":[],"stateMutability":"nonpayable"},{"type":"function","name":"entryPoint","inputs":[],"outputs":[{"name":"","type":"address","internalType":"contract IEntryPoint"}],"stateMutability":"view"},{"type":"function","name":"execute","inputs":[{"name":"target","type":"address","internalType":"address"},{"name":"value","type":"uint256","internalType":"uint256"},{"name":"data","type":"bytes","internalType":"bytes"}],"outputs":[{"name":"","type":"bytes","internalType":"bytes"}],"stateMutability":"nonpayable"},{"type":"function","name":"executeBatch","inputs":[{"name":"targets","type":"address[]","internalType":"address[]"},{"name":"values","type":"uint256[]","internalType":"uint256[]"},{"name":"datas","type":"bytes[]","internalType":"bytes[]"}],"outputs":[{"name":"","type":"bytes[]","internalType":"bytes[]"}],"stateMutability":"nonpayable"},{"type":"function","name":"executeRecovery","inputs":[],"outputs":[],"stateMutability":"nonpayable"},{"type":"function","name":"getNonce","inputs":[{"name":"key","type":"uint192","internalType":"uint192"}],"outputs":[{"name":"","type":"uint256","internalType":"uint256"}],"stateMutability":"view"},{"type":"function","name":"getNonce","inputs":[],"outputs":[{"name":"","type":"uint256","internalType":"uint256"}],"stateMutability":"view"},{"type":"function","name":"guardian","inputs":[],"outputs":[{"name":"","type":"address","internalType":"address"}],"stateMutability":"view"},{"type":"function","name":"initiateRecovery","inputs":[{"name":"newOwner","type":"address","internalType":"address"}],"outputs":[],"stateMutability":"nonpayable"},{"type":"function","name":"owner","inputs":[],"outputs":[{"name":"","type":"address","internalType":"address"}],"stateMutability":"view"},{"type":"function","name":"pendingRecovery","inputs":[],"outputs":[{"name":"newOwner","type":"address","internalType":"address"},{"name":"timestamp","type":"uint256","internalType":"uint256"},{"name":"executed","type":"bool","internalType":"bool"}],"stateMutability":"view"},{"type":"function","name":"revokeSessionKey","inputs":[{"name":"sessionKey","type":"address","internalType":"address"}],"outputs":[],"stateMutability":"nonpayable"},{"type":"function","name":"sessionKeys","inputs":[{"name":"","type":"address","internalType":"address"}],"outputs":[{"name":"validUntil","type":"uint256","internalType":"uint256"},{"name":"spendingLimit","type":"uint256","internalType":"uint256"},{"name":"spentAmount","type":"uint256","internalType":"uint256"}],"stateMutability":"view"},{"type":"function","name":"setGuardian","inputs":[{"name":"_guardian","type":"address","internalType":"address"}],"outputs":[],"stateMutability":"nonpayable"},{"type":"function","name":"signer","inputs":[],"outputs":[{"name":"","type":"address","internalType":"address"}],"stateMutability":"view"},{"type":"function","name":"validateUserOp","inputs":[{"name":"userOp","type":"tuple","internalType":"struct PackedUserOperation","components":[{"name":"sender","type":"address","internalType":"address"},{"name":"nonce","type":"uint256","internalType":"uint256"},{"name":"initCode","type":"bytes","internalType":"bytes"},{"name":"callData","type":"bytes","internalType":"bytes"},{"name":"accountGasLimits","type":"bytes32","internalType":"bytes32"},{"name":"preVerificationGas","type":"uint256","internalType":"uint256"},{"name":"gasFees","type":"bytes32","internalType":"bytes32"},{"name":"paymasterAndData","type":"bytes","internalType":"bytes"},{"name":"signature","type":"bytes","internalType":"bytes"}]},{"name":"userOpHash","type":"bytes32","internalType":"bytes32"},{"name":"missingAccountFunds","type":"uint256","internalType":"uint256"}],"outputs":[{"name":"","type":"uint256","internalType":"uint256"}],"stateMutability":"nonpayable"},{"type":"event","name":"OwnerChanged","inputs":[{"name":"oldOwner","type":"address","indexed":true,"internalType":"address"},{"name":"newOwner","type":"address","indexed":true,"internalType":"address"}],"anonymous":false},{"type":"event","name":"RecoveryExecuted","inputs":[{"name":"oldOwner","type":"address","indexed":true,"internalType":"address"},{"name":"newOwner","type":"address","indexed":true,"internalType":"address"}],"anonymous":false},{"type":"event","name":"RecoveryInitiated","inputs":[{"name":"newOwner","type":"address","indexed":true,"internalType":"address"},{"name":"timestamp","type":"uint256","indexed":false,"internalType":"uint256"}],"anonymous":false},{"type":"event","name":"SessionKeyAdded","inputs":[{"name":"sessionKey","type":"address","indexed":true,"internalType":"address"},{"name":"validUntil","type":"uint256","indexed":false,"internalType":"uint256"},{"name":"spendingLimit","type":"uint256","indexed":false,"internalType":"uint256"}],"anonymous":false},{"type":"event","name":"SessionKeyRevoked","inputs":[{"name":"sessionKey","type":"address","indexed":true,"internalType":"address"}],"anonymous":false},{"type":"error","name":"AccountUnauthorized","inputs":[{"name":"sender","type":"address","internalType":"address"}]},{"type":"error","name":"AddressEmptyCode","inputs":[{"name":"target","type":"address","internalType":"address"}]},{"type":"error","name":"FailedCall","inputs":[]},{"type":"error","name":"InsufficientBalance","inputs":[{"name":"balance","type":"uint256","internalType":"uint256"},{"name":"needed","type":"uint256","internalType":"uint256"}]},{"type":"error","name":"ReentrancyGuardReentrantCall","inputs":[]}],"bytecode":{"object":"0x60a0346100e157601f61155038819003918201601f19168301916001600160401b038311848410176100e55780849260409485528339810103126100e1578051906001600160a01b03821682036100e157602001516001600160a01b03811691908290036100e1578160018060a01b03195f5416175f5560017f9b779b17422d0df92223018b32b4d1fa46e071723d6817e2486d003becc55f005560805260018060a01b0319600754161760075560405161145690816100fa823960805181818161020a0152818161041801528181610ac901528181610ce401526111ad0152f35b5f80fd5b634e487b7160e01b5f52604160045260245ffdfe6080604052600436101561001a575b3615610018575f80fd5b005b5f3560e01c806319822f7c14610ca757806320c5a3e114610b0a578063238ac933146106415780633e1b081214610a80578063452a932014610a5857806347e1da2a1461079957806384f4fc6a146106d25780638a0dac4a146106465780638da5cb5b14610641578063902a61aa146104d1578063a6f9dae114610447578063b0d691fe14610403578063b61d27f6146102d9578063b7b8d6041461028a578063d087d288146101d9578063d5ce9aad146101185763faeb44880361000e5734610114575f36600319011261011457606060018060a01b036003541660045460ff6005541690604051928352602083015215156040820152f35b5f80fd5b3461011457602036600319011261011457610131610dee565b61014660018060a01b03600254163314610e37565b6001600160a01b031661015a811515610fd8565b600754610172906001600160a01b0316821415611018565b5f6040805161018081610e80565b8381524260208201520152806001600160601b0360a01b60035416176003554260045560ff19600554166005557f8a9bdbd6fa6536bd7e02875d089a0604de2d92780294abc78536d93fd6c95b7c6020604051428152a2005b34610114575f36600319011261011457604051631aab3f0d60e11b81523060048201525f60248201526020816044817f00000000000000000000000000000000000000000000000000000000000000006001600160a01b03165afa801561027f575f9061024c575b604051908152602090f35b506020813d602011610277575b8161026660209383610eb0565b810103126101145760209051610241565b3d9150610259565b6040513d5f823e3d90fd5b34610114576020366003190112610114576001600160a01b036102ab610dee565b165f526001602052606060405f20805490600260018201549101549060405192835260208301526040820152f35b34610114576060366003190112610114576102f2610dee565b60443560243567ffffffffffffffff821161011457366023830112156101145781600401359267ffffffffffffffff841161011457366024858501011161011457610373610379936103b095610346611199565b61034e6111dc565b6006546001600160a01b0316801515806103ee575b6103b4575b506024369201610f46565b90611214565b6001600160601b0360a01b6006541660065560015f5160206114015f395f51905f5255604051918291602083526020830190610dca565b0390f35b5f52600160205260405f208054156103685780600160026103e89301916103dc898454610e73565b80935501541015610ee2565b87610368565b506007546001600160a01b0316811415610363565b34610114575f366003190112610114576040517f00000000000000000000000000000000000000000000000000000000000000006001600160a01b03168152602090f35b3461011457602036600319011261011457610460610dee565b600754906001600160a01b0382169061047a338314610fa0565b6001600160a01b0316918290610491821515610fd8565b61049d83831415611018565b6001600160a01b031916176007557fb532073b38c83145e3e5135377a08bf9aab55bc0fd7c1179cd4fb995d2a5159c5f80a3005b34610114576060366003190112610114576104ea610dee565b6024356044359161050660018060a01b03600754163314610fa0565b6001600160a01b031691821561060657428211156105cb57801561058d577f30478d28be29dd278930ac735051673ecaeff378c6a4763b30c935fe097c46f591604091825161055481610e80565b828152600260208201838152858301905f8252885f526001602052865f20935184555160018401555191015582519182526020820152a2005b60405162461bcd60e51b8152602060048201526016602482015275125b9d985b1a59081cdc195b991a5b99c81b1a5b5a5d60521b6044820152606490fd5b60405162461bcd60e51b8152602060048201526013602482015272496e76616c6964206578706972792074696d6560681b6044820152606490fd5b60405162461bcd60e51b8152602060048201526013602482015272496e76616c69642073657373696f6e206b657960681b6044820152606490fd5b610d71565b346101145760203660031901126101145761065f610dee565b61067460018060a01b03600754163314610fa0565b6001600160a01b0316801561069a576001600160601b0360a01b60025416176002555f80f35b60405162461bcd60e51b815260206004820152601060248201526f24b73b30b634b21033bab0b93234b0b760811b6044820152606490fd5b34610114576020366003190112610114576106eb610dee565b61070060018060a01b03600754163314610fa0565b6001600160a01b03165f818152600160205260409020541561075c57805f5260016020525f60026040822082815582600182015501557f17c796fb82086b3c9effaec517342e5ca9ed8fd78c339137ec082f748ab60cbe5f80a2005b60405162461bcd60e51b815260206004820152601560248201527414d95cdcda5bdb881ad95e481b9bdd08199bdd5b99605a1b6044820152606490fd5b346101145760603660031901126101145760043567ffffffffffffffff8111610114576107ca903690600401610d99565b9060243567ffffffffffffffff8111610114576107eb903690600401610d99565b919060443567ffffffffffffffff81116101145761080d903690600401610d99565b91610816611199565b61081e6111dc565b84861480610a4f575b15610a12576006545f906001600160a01b0316801515806109fd575b6109a4575b505061085386610f2e565b956108616040519788610eb0565b808752601f1961087082610f2e565b015f5b8181106109935750505f5b81811061090f57876001600160601b0360a01b6006541660065560015f5160206114015f395f51905f52556040518091602082016020835281518091526040830190602060408260051b8601019301915f905b8282106108e057505050500390f35b919360019193955060206108ff8192603f198a82030186528851610dca565b96019201920185949391926108d1565b61091a818388610ed2565b35906001600160a01b0382168203610114578581101561097f57610963816001936103738b61095a6109518560051b8c018c610e04565b9590928b610ed2565b35933691610f46565b61096d828b610f8c565b52610978818a610f8c565b500161087e565b634e487b7160e01b5f52603260045260245ffd5b806060602080938c01015201610873565b5f5b8781106109dd57505f52600160205260405f2090815415610848576001826103dc60026109d69501938454610e73565b8680610848565b916109f66001916109ef858b88610ed2565b3590610e73565b92016109a6565b506007546001600160a01b0316811415610843565b60405162461bcd60e51b8152602060048201526015602482015274082e4e4c2f240d8cadccee8d040dad2e6dac2e8c6d605b1b6044820152606490fd5b50828614610827565b34610114575f366003190112610114576002546040516001600160a01b039091168152602090f35b34610114576020366003190112610114576004356001600160c01b0381169081900361011457604051631aab3f0d60e11b815230600482015260248101919091526020816044817f00000000000000000000000000000000000000000000000000000000000000006001600160a01b03165afa801561027f575f9061024c57604051908152602090f35b34610114575f36600319011261011457610b2f60018060a01b03600254163314610e37565b6004548015610c6c576005549060ff8216610c2757620151808101809111610c13574210610bd557600780546003546001600160a01b031982166001600160a01b0391821690811790935560ff1990931660011760055590911681817f60f9f98be64687700419cfa6fdd7877bc88c6daeb10bc664a2be9fdd6b0c79215f80a37fb532073b38c83145e3e5135377a08bf9aab55bc0fd7c1179cd4fb995d2a5159c5f80a3005b60405162461bcd60e51b8152602060048201526016602482015275149958dbdd995c9e4819195b185e481b9bdd081b595d60521b6044820152606490fd5b634e487b7160e01b5f52601160045260245ffd5b60405162461bcd60e51b815260206004820152601960248201527f5265636f7665727920616c7265616479206578656375746564000000000000006044820152606490fd5b60405162461bcd60e51b81526020600482015260136024820152724e6f2070656e64696e67207265636f7665727960681b6044820152606490fd5b346101145760603660031901126101145760043567ffffffffffffffff8111610114578060040190610120600319823603011261011457604435907f00000000000000000000000000000000000000000000000000000000000000006001600160a01b03163303610d5e57602092610d26610104610d30930182610e04565b9160243590611051565b9080610d40575b50604051908152f35b5f8080809381604051610d538982610eb0565b52335af15082610d37565b637cf8632b60e01b5f523360045260245ffd5b34610114575f366003190112610114576007546040516001600160a01b039091168152602090f35b9181601f840112156101145782359167ffffffffffffffff8311610114576020808501948460051b01011161011457565b805180835260209291819084018484015e5f828201840152601f01601f1916010190565b600435906001600160a01b038216820361011457565b903590601e1981360301821215610114570180359067ffffffffffffffff82116101145760200191813603831361011457565b15610e3e57565b60405162461bcd60e51b815260206004820152600d60248201526c27b7363c9033bab0b93234b0b760991b6044820152606490fd5b91908201809211610c1357565b6060810190811067ffffffffffffffff821117610e9c57604052565b634e487b7160e01b5f52604160045260245ffd5b90601f8019910116810190811067ffffffffffffffff821117610e9c57604052565b919081101561097f5760051b0190565b15610ee957565b60405162461bcd60e51b815260206004820152601760248201527f5370656e64696e67206c696d69742065786365656465640000000000000000006044820152606490fd5b67ffffffffffffffff8111610e9c5760051b60200190565b92919267ffffffffffffffff8211610e9c5760405191610f70601f8201601f191660200184610eb0565b829481845281830111610114578281602093845f960137010152565b805182101561097f5760209160051b010190565b15610fa757565b60405162461bcd60e51b81526020600482015260096024820152682737ba1037bbb732b960b91b6044820152606490fd5b15610fdf57565b60405162461bcd60e51b815260206004820152601160248201527024b73b30b634b2103732bb9037bbb732b960791b6044820152606490fd5b1561101f57565b60405162461bcd60e51b815260206004820152600a60248201526929b0b6b29037bbb732b960b11b6044820152606490fd5b919061105e8483836112c0565b6007546001600160a01b0391821695911692908584146111235750505050815f52600160205260405f208054806110985750505050600190565b42116110e85760016110c76110bd6110b78560606110d1970190610e04565b906112e6565b6002840154610e73565b9101541015610ee2565b6001600160601b0360a01b60065416176006555f90565b60405162461bcd60e51b815260206004820152601360248201527214d95cdcda5bdb881ad95e48195e1c1a5c9959606a1b6044820152606490fd5b61114e94506111489293956001600160601b0360a01b60065416176006553691610f46565b90611344565b506001600160a01b039091169091149081611173575b501561116e575f90565b600190565b9050600481101561118557155f611164565b634e487b7160e01b5f52602160045260245ffd5b30331415806111a9575b610d5e57565b50337f00000000000000000000000000000000000000000000000000000000000000006001600160a01b031614156111a3565b60025f5160206114015f395f51905f5254146112055760025f5160206114015f395f51905f5255565b633ee5aeb560e01b5f5260045ffd5b918047106112aa57815f92916020849351920190855af18080611297575b156112525750506040513d81523d5f602083013e60203d82010160405290565b1561127757639996b31560e01b5f9081526001600160a01b0391909116600452602490fd5b3d15611288576040513d5f823e3d90fd5b63d6bda27560e01b5f5260045ffd5b503d1515806112325750813b1515611232565b4763cf47918160e01b5f5260045260245260445ffd5b90611148906112d0933691610f46565b506004811015611185576112e15790565b505f90565b9060448110156112f7575b50505f90565b806004116101145781356001600160e01b031916635b0e93fb60e11b81036113285750604411610114576024013590565b636171d1c960e01b1491506113409050575f806112f1565b5f90565b81519190604183036113745761136d9250602082015190606060408401519301515f1a9061137e565b9192909190565b50505f9160029190565b91907f7fffffffffffffffffffffffffffffff5d576e7357a4501ddfe92f46681b20a084116113f5579160209360809260ff5f9560405194855216868401526040830152606082015282805260015afa1561027f575f516001600160a01b038116156113eb57905f905f90565b505f906001905f90565b5050505f916003919056fe9b779b17422d0df92223018b32b4d1fa46e071723d6817e2486d003becc55f00a26469706673582212205e7eaa6851147734081c8c942ba7a9ec10a71cda249b7949a481aab86cdbf88964736f6c634300081e0033","linkReferences":{}},"methodIdentifiers":{"addSessionKey(address,uint256,uint256)":"902a61aa","changeOwner(address)":"a6f9dae1","entryPoint()":"b0d691fe","execute(address,uint256,bytes)":"b61d27f6","executeBatch(address[],uint256[],bytes[])":"47e1da2a","executeRecovery()":"20c5a3e1","getNonce()":"d087d288","getNonce(uint192)":"3e1b0812","guardian()":"452a9320","initiateRecovery(address)":"d5ce9aad","owner()":"8da5cb5b","pendingRecovery()":"faeb4488","revokeSessionKey(address)":"84f4fc6a","sessionKeys(address)":"b7b8d604","setGuardian(address)":"8a0dac4a","signer()":"238ac933","validateUserOp((address,uint256,bytes,bytes,bytes32,uint256,bytes32,bytes,bytes),bytes32,uint256)":"19822f7c"},"id":42}