{"abi":[{"type":"constructor","inputs":[{"name":"name","type":"string","internalType":"string"},{"name":"symbol","type":"string","internalType":"string"},{"name":"_verifier","type":"address","internalType":"address"}],"stateMutability":"nonpayable"},{"type":"function","name":"allowance","inputs":[{"name":"owner","type":"address","internalType":"address"},{"name":"spender","type":"address","internalType":"address"}],"outputs":[{"name":"","type":"uint256","internalType":"uint256"}],"stateMutability":"view"},{"type":"function","name":"approve","inputs":[{"name":"spender","type":"address","internalType":"address"},{"name":"value","type":"uint256","internalType":"uint256"}],"outputs":[{"name":"","type":"bool","internalType":"bool"}],"stateMutability":"nonpayable"},{"type":"function","name":"balanceOf","inputs":[{"name":"account","type":"address","internalType":"address"}],"outputs":[{"name":"","type":"uint256","internalType":"uint256"}],"stateMutability":"view"},{"type":"function","name":"claimFromCommitment","inputs":[{"name":"commitment","type":"bytes32","internalType":"bytes32"},{"name":"amount","type":"uint256","internalType":"uint256"},{"name":"proof","type":"bytes","internalType":"bytes"}],"outputs":[],"stateMutability":"nonpayable"},{"type":"function","name":"commitmentAmounts","inputs":[{"name":"","type":"bytes32","internalType":"bytes32"}],"outputs":[{"name":"","type":"uint256","internalType":"uint256"}],"stateMutability":"view"},{"type":"function","name":"commitments","inputs":[{"name":"","type":"bytes32","internalType":"bytes32"}],"outputs":[{"name":"","type":"bool","internalType":"bool"}],"stateMutability":"view"},{"type":"function","name":"createCommitment","inputs":[{"name":"inputs","type":"bytes32[4]","internalType":"bytes32[4]"}],"outputs":[{"name":"commitment","type":"bytes32","internalType":"bytes32"}],"stateMutability":"view"},{"type":"function","name":"decimals","inputs":[],"outputs":[{"name":"","type":"uint8","internalType":"uint8"}],"stateMutability":"view"},{"type":"function","name":"isCommitmentValid","inputs":[{"name":"commitment","type":"bytes32","internalType":"bytes32"}],"outputs":[{"name":"","type":"bool","internalType":"bool"}],"stateMutability":"view"},{"type":"function","name":"isNullifierUsed","inputs":[{"name":"nullifier","type":"bytes32","internalType":"bytes32"}],"outputs":[{"name":"","type":"bool","internalType":"bool"}],"stateMutability":"view"},{"type":"function","name":"mint","inputs":[{"name":"to","type":"address","internalType":"address"},{"name":"amount","type":"uint256","internalType":"uint256"}],"outputs":[],"stateMutability":"nonpayable"},{"type":"function","name":"minter","inputs":[],"outputs":[{"name":"","type":"address","internalType":"address"}],"stateMutability":"view"},{"type":"function","name":"name","inputs":[],"outputs":[{"name":"","type":"string","internalType":"string"}],"stateMutability":"view"},{"type":"function","name":"nullifiers","inputs":[{"name":"","type":"bytes32","internalType":"bytes32"}],"outputs":[{"name":"","type":"bool","internalType":"bool"}],"stateMutability":"view"},{"type":"function","name":"privateTransfer","inputs":[{"name":"commitment","type":"bytes32","internalType":"bytes32"},{"name":"nullifier","type":"bytes32","internalType":"bytes32"},{"name":"amount","type":"uint256","internalType":"uint256"},{"name":"proof","type":"bytes","internalType":"bytes"}],"outputs":[],"stateMutability":"nonpayable"},{"type":"function","name":"setMinter","inputs":[{"name":"_minter","type":"address","internalType":"address"}],"outputs":[],"stateMutability":"nonpayable"},{"type":"function","name":"symbol","inputs":[],"outputs":[{"name":"","type":"string","internalType":"string"}],"stateMutability":"view"},{"type":"function","name":"totalLocked","inputs":[],"outputs":[{"name":"","type":"uint256","internalType":"uint256"}],"stateMutability":"view"},{"type":"function","name":"totalSupply","inputs":[],"outputs":[{"name":"","type":"uint256","internalType":"uint256"}],"stateMutability":"view"},{"type":"function","name":"transfer","inputs":[{"name":"to","type":"address","internalType":"address"},{"name":"amount","type":"uint256","internalType":"uint256"}],"outputs":[{"name":"success","type":"bool","internalType":"bool"}],"stateMutability":"nonpayable"},{"type":"function","name":"transferFrom","inputs":[{"name":"from","type":"address","internalType":"address"},{"name":"to","type":"address","internalType":"address"},{"name":"value","type":"uint256","internalType":"uint256"}],"outputs":[{"name":"","type":"bool","internalType":"bool"}],"stateMutability":"nonpayable"},{"type":"function","name":"updateEncryptedBalance","inputs":[{"name":"encryptedData","type":"bytes","internalType":"bytes"}],"outputs":[],"stateMutability":"nonpayable"},{"type":"function","name":"verifier","inputs":[],"outputs":[{"name":"","type":"address","internalType":"contract Verifier"}],"stateMutability":"view"},{"type":"event","name":"Approval","inputs":[{"name":"owner","type":"address","indexed":true,"internalType":"address"},{"name":"spender","type":"address","indexed":true,"internalType":"address"},{"name":"value","type":"uint256","indexed":false,"internalType":"uint256"}],"anonymous":false},{"type":"event","name":"CommitmentClaimed","inputs":[{"name":"commitment","type":"bytes32","indexed":true,"internalType":"bytes32"},{"name":"recipient","type":"address","indexed":true,"internalType":"address"},{"name":"amount","type":"uint256","indexed":false,"internalType":"uint256"}],"anonymous":false},{"type":"event","name":"EncryptedBalanceUpdated","inputs":[{"name":"account","type":"address","indexed":true,"internalType":"address"},{"name":"encryptedData","type":"bytes","indexed":false,"internalType":"bytes"}],"anonymous":false},{"type":"event","name":"PrivateTransfer","inputs":[{"name":"commitment","type":"bytes32","indexed":true,"internalType":"bytes32"},{"name":"nullifier","type":"bytes32","indexed":true,"internalType":"bytes32"},{"name":"recipient","type":"address","indexed":true,"internalType":"address"}],"anonymous":false},{"type":"event","name":"Transfer","inputs":[{"name":"from","type":"address","indexed":true,"internalType":"address"},{"name":"to","type":"address","indexed":true,"internalType":"address"},{"name":"value","type":"uint256","indexed":false,"internalType":"uint256"}],"anonymous":false},{"type":"error","name":"ERC20InsufficientAllowance","inputs":[{"name":"spender","type":"address","internalType":"address"},{"name":"allowance","type":"uint256","internalType":"uint256"},{"name":"needed","type":"uint256","internalType":"uint256"}]},{"type":"error","name":"ERC20InsufficientBalance","inputs":[{"name":"sender","type":"address","internalType":"address"},{"name":"balance","type":"uint256","internalType":"uint256"},{"name":"needed","type":"uint256","internalType":"uint256"}]},{"type":"error","name":"ERC20InvalidApprover","inputs":[{"name":"approver","type":"address","internalType":"address"}]},{"type":"error","name":"ERC20InvalidReceiver","inputs":[{"name":"receiver","type":"address","internalType":"address"}]},{"type":"error","name":"ERC20InvalidSender","inputs":[{"name":"sender","type":"address","internalType":"address"}]},{"type":"error","name":"ERC20InvalidSpender","inputs":[{"name":"spender","type":"address","internalType":"address"}]},{"type":"error","name":"ReentrancyGuardReentrantCall","inputs":[]}],"bytecode":{"object":"0x60a0604052346103c1576115ed80380380610019816103c5565b9283398101906060818303126103c15780516001600160401b0381116103c157826100459183016103ea565b60208201519092906001600160401b0381116103c1576040916100699184016103ea565b9101516001600160a01b038116908190036103c15782516001600160401b0381116102d257600354600181811c911680156103b7575b60208210146102b457601f8111610354575b506020601f82116001146102f157819293945f926102e6575b50508160011b915f199060031b1c1916176003555b81516001600160401b0381116102d257600454600181811c911680156102c8575b60208210146102b457601f8111610251575b50602092601f82116001146101f057928192935f926101e5575b50508160011b915f199060031b1c1916176004555b60017f9b779b17422d0df92223018b32b4d1fa46e071723d6817e2486d003becc55f005580156101ad57608052600980546001600160a01b031916331790556040516111b1908161043c823960805181818161029b015281816105930152818161091f0152610acb0152f35b60405162461bcd60e51b815260206004820152601060248201526f24b73b30b634b2103b32b934b334b2b960811b6044820152606490fd5b015190505f8061012c565b601f1982169360045f52805f20915f5b8681106102395750836001959610610221575b505050811b01600455610141565b01515f1960f88460031b161c191690555f8080610213565b91926020600181928685015181550194019201610200565b60045f527f8a35acfbc15ff81a39ae7d344fd709f28e8600b4aa8c65c6b64bfe7fe36bd19b601f830160051c810191602084106102aa575b601f0160051c01905b81811061029f5750610112565b5f8155600101610292565b9091508190610289565b634e487b7160e01b5f52602260045260245ffd5b90607f1690610100565b634e487b7160e01b5f52604160045260245ffd5b015190505f806100ca565b601f1982169060035f52805f20915f5b81811061033c57509583600195969710610324575b505050811b016003556100df565b01515f1960f88460031b161c191690555f8080610316565b9192602060018192868b015181550194019201610301565b60035f527fc2575a0e9e593c00f959f8c92f12db2869c3395a3b0502d05e2516446f71f85b601f830160051c810191602084106103ad575b601f0160051c01905b8181106103a257506100b1565b5f8155600101610395565b909150819061038c565b90607f169061009f565b5f80fd5b6040519190601f01601f191682016001600160401b038111838210176102d257604052565b81601f820112156103c1578051906001600160401b0382116102d257610419601f8301601f19166020016103c5565b92828452602083830101116103c157815f9260208093018386015e830101529056fe6080806040526004361015610012575f80fd5b5f3560e01c90816306fdde0314610d53575080630754617214610d2b578063095ea7b314610ca957806318160ddd14610c8c5780631da653f514610c0857806322dc7b4c14610afa57806323b872dd14610b295780632997e86b14610afa5780632b7ac3f314610ab6578063313ce56714610a9b57806340c10f19146109b157806342ffdb991461088357806356891412146109945780635ab1fa6f146108e957806370a08231146108b2578063839df9451461088357806395d89b411461077f5780639cb3e469146104f5578063a9059cbb146104c4578063bca449221461049a578063c4a669fd146101f4578063dd62ed3e146101a45763fca3b5aa14610119575f80fd5b346101a05760203660031901126101a057610132610e35565b6009549061014a336001600160a01b03841614610ec5565b6001600160a01b031690811561016a576001600160a01b03191617600955005b60405162461bcd60e51b815260206004820152600e60248201526d24b73b30b634b21036b4b73a32b960911b6044820152606490fd5b5f80fd5b346101a05760403660031901126101a0576101bd610e35565b6101c5610e4b565b6001600160a01b039182165f908152600160209081526040808320949093168252928352819020549051908152f35b346101a05760603660031901126101a05760243560043560443567ffffffffffffffff81116101a05761022b903690600401610e61565b90610234611123565b825f52600560205260ff60405f2054161561045e5761027991835f5260076020526102648560405f20541461101b565b6102716080821015610eff565b810190610f42565b60405163f1e4d7ef60e01b8152602081806102978560048301610fa2565b03817f00000000000000000000000000000000000000000000000000000000000000006001600160a01b03165afa80156104535783905f9061041d575b6102df925014610fcf565b6102eb8382511461101b565b604001516001600160a01b031633036103d8575f818152600560209081526040808320805460ff1916905560079091528120556008548281106103935782810390811161037f57600855610340823330611066565b6040519182527fa517a9df61f6a6759d7c27837e03a5969158dab4101782f513d54e2b589d87ea60203393a360015f51602061115c5f395f51905f5255005b634e487b7160e01b5f52601160045260245ffd5b60405162461bcd60e51b815260206004820152601b60248201527f496e73756666696369656e74206c6f636b65642062616c616e636500000000006044820152606490fd5b60405162461bcd60e51b815260206004820152601760248201527f4e6f7420617574686f72697a656420746f20636c61696d0000000000000000006044820152606490fd5b50506020813d60201161044b575b8161043860209383610e8f565b810103126101a057826102df91516102d4565b3d915061042b565b6040513d5f823e3d90fd5b60405162461bcd60e51b815260206004820152601460248201527310dbdb5b5a5d1b595b9d081b9bdd08199bdd5b9960621b6044820152606490fd5b346101a05760203660031901126101a0576004355f526007602052602060405f2054604051908152f35b346101a05760403660031901126101a0576104ea6104e0610e35565b6024359033611066565b602060405160018152f35b346101a05760803660031901126101a05760043560243560443560643567ffffffffffffffff81116101a05761052f903690600401610e61565b90610538611123565b835f52600660205260ff60405f20541661074157845f52600560205260ff60405f2054166106fc57816102716080610571941015610eff565b60405163f1e4d7ef60e01b81526020818061058f8560048301610fa2565b03817f00000000000000000000000000000000000000000000000000000000000000006001600160a01b03165afa90811561045357839186915f916106c2575b506105e693916105df9114610fcf565b511461101b565b335f525f6020528060405f20541061068657610603813033611066565b61060f81600854611059565b600855825f52600560205260405f20600160ff19825416179055825f52600760205260405f2055805f52600660205260405f20600160ff1982541617905533917fa3f48748770c76eff47aa25f76ab5106a6709296d421fbb870946acfe57f94fe5f80a460015f51602061115c5f395f51905f5255005b60405162461bcd60e51b8152602060048201526014602482015273496e73756666696369656e742062616c616e636560601b6044820152606490fd5b925050506020813d6020116106f4575b816106df60209383610e8f565b810103126101a05751829085906105e66105cf565b3d91506106d2565b60405162461bcd60e51b815260206004820152601860248201527f436f6d6d69746d656e7420616c7265616479207370656e7400000000000000006044820152606490fd5b60405162461bcd60e51b8152602060048201526016602482015275139d5b1b1a599a595c88185b1c9958591e481d5cd95960521b6044820152606490fd5b346101a0575f3660031901126101a0576040515f6004548060011c90600181168015610879575b6020831081146108655782855290811561084157506001146107e3575b6107df836107d381850382610e8f565b60405191829182610e0b565b0390f35b91905060045f527f8a35acfbc15ff81a39ae7d344fd709f28e8600b4aa8c65c6b64bfe7fe36bd19b915f905b808210610827575090915081016020016107d36107c3565b91926001816020925483858801015201910190929161080f565b60ff191660208086019190915291151560051b840190910191506107d390506107c3565b634e487b7160e01b5f52602260045260245ffd5b91607f16916107a6565b346101a05760203660031901126101a0576004355f526005602052602060ff60405f2054166040519015158152f35b346101a05760203660031901126101a0576001600160a01b036108d3610e35565b165f525f602052602060405f2054604051908152f35b346101a05760803660031901126101a057366084116101a05760405163f1e4d7ef60e01b815260806004808301376020816084817f00000000000000000000000000000000000000000000000000000000000000006001600160a01b03165afa8015610453575f90610961575b602090604051908152f35b506020813d60201161098c575b8161097b60209383610e8f565b810103126101a05760209051610956565b3d915061096e565b346101a0575f3660031901126101a0576020600854604051908152f35b346101a05760403660031901126101a0576109ca610e35565b602435906109e360018060a01b03600954163314610ec5565b6001600160a01b0316908115610a56577fddf252ad1be2c89b69c2b068fc378daa952ba7f163c4a11628f55a4df523b3ef60205f92610a2481600254611059565b60025584158414610a415780600254036002555b604051908152a3005b84845283825260408420818154019055610a38565b60405162461bcd60e51b815260206004820152601b60248201527f43616e6e6f74206d696e7420746f207a65726f206164647265737300000000006044820152606490fd5b346101a0575f3660031901126101a057602060405160128152f35b346101a0575f3660031901126101a0576040517f00000000000000000000000000000000000000000000000000000000000000006001600160a01b03168152602090f35b346101a05760203660031901126101a0576004355f526006602052602060ff60405f2054166040519015158152f35b346101a05760603660031901126101a057610b42610e35565b610b4a610e4b565b6001600160a01b0382165f818152600160209081526040808320338452909152902054909260443592915f198110610b88575b506104ea9350611066565b838110610bed578415610bda573315610bc7576104ea945f52600160205260405f2060018060a01b0333165f526020528360405f209103905584610b7d565b634a1406b160e11b5f525f60045260245ffd5b63e602df0560e01b5f525f60045260245ffd5b8390637dc7a0d960e11b5f523360045260245260445260645ffd5b346101a05760203660031901126101a05760043567ffffffffffffffff81116101a057610c5a7f6175c2013cb403ee9f4ca7df7485fd1a7d71df41abae9173c7cab307e1d90bd0913690600401610e61565b919082604051916020835281602084015260408301375f604084830101526040813394601f80199101168101030190a2005b346101a0575f3660031901126101a0576020600254604051908152f35b346101a05760403660031901126101a057610cc2610e35565b602435903315610bda576001600160a01b0316908115610bc757335f52600160205260405f20825f526020528060405f20556040519081527f8c5be1e5ebec7d5bd14f71427d1e84f3dd0314c0f7b2291e5b200ac8c7c3b92560203392a3602060405160018152f35b346101a0575f3660031901126101a0576009546040516001600160a01b039091168152602090f35b346101a0575f3660031901126101a0575f6003548060011c90600181168015610e01575b602083108114610865578285529081156108415750600114610da3576107df836107d381850382610e8f565b91905060035f527fc2575a0e9e593c00f959f8c92f12db2869c3395a3b0502d05e2516446f71f85b915f905b808210610de7575090915081016020016107d36107c3565b919260018160209254838588010152019101909291610dcf565b91607f1691610d77565b602060409281835280519182918282860152018484015e5f828201840152601f01601f1916010190565b600435906001600160a01b03821682036101a057565b602435906001600160a01b03821682036101a057565b9181601f840112156101a05782359167ffffffffffffffff83116101a057602083818601950101116101a057565b90601f8019910116810190811067ffffffffffffffff821117610eb157604052565b634e487b7160e01b5f52604160045260245ffd5b15610ecc57565b60405162461bcd60e51b815260206004820152600b60248201526a27b7363c9036b4b73a32b960a91b6044820152606490fd5b15610f0657565b60405162461bcd60e51b8152602060048201526014602482015273092dcecc2d8d2c840e0e4dedecc40d8cadccee8d60631b6044820152606490fd5b906080828203126101a05780601f830112156101a057604051916080830183811067ffffffffffffffff821117610eb1576040528290608081019283116101a057905b828210610f925750505090565b8135815260209182019101610f85565b919060808301925f905b60048210610fb957505050565b6020806001928551815201930191019091610fac565b15610fd657565b60405162461bcd60e51b815260206004820152601860248201527f496e76616c696420636f6d6d69746d656e742070726f6f6600000000000000006044820152606490fd5b1561102257565b60405162461bcd60e51b815260206004820152600f60248201526e082dadeeadce840dad2e6dac2e8c6d608b1b6044820152606490fd5b9190820180921161037f57565b6001600160a01b0316908115611110576001600160a01b03169182156110fd57815f525f60205260405f20548181106110e457817fddf252ad1be2c89b69c2b068fc378daa952ba7f163c4a11628f55a4df523b3ef92602092855f525f84520360405f2055845f525f825260405f20818154019055604051908152a3565b8263391434e360e21b5f5260045260245260445260645ffd5b63ec442f0560e01b5f525f60045260245ffd5b634b637e8f60e11b5f525f60045260245ffd5b60025f51602061115c5f395f51905f52541461114c5760025f51602061115c5f395f51905f5255565b633ee5aeb560e01b5f5260045ffdfe9b779b17422d0df92223018b32b4d1fa46e071723d6817e2486d003becc55f00a2646970667358221220c60172874657515211bf6a78654ecc4208c467e35c341e44a10f472a35fff7be64736f6c634300081e0033","linkReferences":{}},"methodIdentifiers":{"allowance(address,address)":"dd62ed3e","approve(address,uint256)":"095ea7b3","balanceOf(address)":"70a08231","claimFromCommitment(bytes32,uint256,bytes)":"c4a669fd","commitmentAmounts(bytes32)":"bca44922","commitments(bytes32)":"839df945","createCommitment(bytes32[4])":"5ab1fa6f","decimals()":"313ce567","isCommitmentValid(bytes32)":"42ffdb99","isNullifierUsed(bytes32)":"22dc7b4c","mint(address,uint256)":"40c10f19","minter()":"07546172","name()":"06fdde03","nullifiers(bytes32)":"2997e86b","privateTransfer(bytes32,bytes32,uint256,bytes)":"9cb3e469","setMinter(address)":"fca3b5aa","symbol()":"95d89b41","totalLocked()":"56891412","totalSupply()":"18160ddd","transfer(address,uint256)":"a9059cbb","transferFrom(address,address,uint256)":"23b872dd","updateEncryptedBalance(bytes)":"1da653f5","verifier()":"2b7ac3f3"},"id":43}