{"abi":[{"type":"constructor","inputs":[{"name":"_hasher","type":"address","internalType":"address"}],"stateMutability":"nonpayable"},{"type":"function","name":"hasher","inputs":[],"outputs":[{"name":"","type":"address","internalType":"contract PoseidonHasher"}],"stateMutability":"view"},{"type":"function","name":"verifyCommitment","inputs":[{"name":"inputs","type":"bytes32[4]","internalType":"bytes32[4]"}],"outputs":[{"name":"commitment","type":"bytes32","internalType":"bytes32"}],"stateMutability":"view"},{"type":"function","name":"verifyCommitment2","inputs":[{"name":"inputs","type":"bytes32[2]","internalType":"bytes32[2]"}],"outputs":[{"name":"commitment","type":"bytes32","internalType":"bytes32"}],"stateMutability":"view"},{"type":"function","name":"verifyCommitment3","inputs":[{"name":"inputs","type":"bytes32[3]","internalType":"bytes32[3]"}],"outputs":[{"name":"commitment","type":"bytes32","internalType":"bytes32"}],"stateMutability":"view"},{"type":"function","name":"verifyCommitmentMatch","inputs":[{"name":"inputs","type":"bytes32[4]","internalType":"bytes32[4]"},{"name":"expectedCommitment","type":"bytes32","internalType":"bytes32"}],"outputs":[{"name":"","type":"bool","internalType":"bool"}],"stateMutability":"view"}],"bytecode":{"object":"0x60a0346100d257601f6104d538819003918201601f19168301916001600160401b038311848410176100d6578084926020946040528339810103126100d257516001600160a01b038116908190036100d257801561008d576080526040516103ea90816100eb823960805181818160ef015281816101d60152818161022c0152818161029101526103050152f35b60405162461bcd60e51b815260206004820152601660248201527f496e76616c6964206861736865722061646472657373000000000000000000006044820152606490fd5b5f80fd5b634e487b7160e01b5f52604160045260245ffdfe6080806040526004361015610012575f80fd5b5f3560e01c9081631a9f9bd9146102d257508063bcbd5dbd1461025b578063ed33639f14610217578063f1e4d7ef146101a05763fe4f6c7d14610053575f80fd5b3461015c57606036600319011261015c573660641161015c5760405161007a60808261037e565b6003815260208101606036823781511561018c57600435815281516001101561018c57602435604083015281516002101561018c57604480356060840152604051635e24cb8f60e11b815260206004820152925160248401819052839291830191905f5b8181106101735784602081808703817f00000000000000000000000000000000000000000000000000000000000000006001600160a01b03165afa8015610168575f90610131575b602090604051908152f35b506020813d602011610160575b8161014b6020938361037e565b8101031261015c5760209051610126565b5f80fd5b3d915061013e565b6040513d5f823e3d90fd5b82518452859450602093840193909201916001016100de565b634e487b7160e01b5f52603260045260245ffd5b3461015c57608036600319011261015c573660841161015c57604051631e86251960e01b815260806004808301376020816084817f00000000000000000000000000000000000000000000000000000000000000006001600160a01b03165afa8015610168575f9061013157602090604051908152f35b3461015c575f36600319011261015c576040517f00000000000000000000000000000000000000000000000000000000000000006001600160a01b03168152602090f35b3461015c57604036600319011261015c573660441161015c576040805163014cf2b360e51b8152906004808301376020816044817f00000000000000000000000000000000000000000000000000000000000000006001600160a01b03165afa8015610168575f9061013157602090604051908152f35b3461015c5760a036600319011261015c573660841161015c57631e86251960e01b815260806004808301376020816084817f00000000000000000000000000000000000000000000000000000000000000006001600160a01b03165afa8015610168575f9061034b575b60209060405190608435148152f35b506020813d602011610376575b816103656020938361037e565b8101031261015c576020905161033c565b3d9150610358565b90601f8019910116810190811067ffffffffffffffff8211176103a057604052565b634e487b7160e01b5f52604160045260245ffdfea2646970667358221220f604ca5ec476f0d19e44cc012013f76cd2304f05e21e19ba5eded0e1e4686ea064736f6c634300081e0033","linkReferences":{}},"methodIdentifiers":{"hasher()":"ed33639f","verifyCommitment(bytes32[4])":"f1e4d7ef","verifyCommitment2(bytes32[2])":"bcbd5dbd","verifyCommitment3(bytes32[3])":"fe4f6c7d","verifyCommitmentMatch(bytes32[4],bytes32)":"1a9f9bd9"},"id":44}